:08011500C1800108000109008E
:07011E00D288D2A8D2AF2263
:03000300020125D2
:03012500B20032F3
:08010C007F027E27DEFEDFFC0E
:0101140022C8
:1000D200EF60130509E509C39F50054308408003FB
:1000E2005308BF12010CE509B40A03E4F5098508B7
:0C00F20080E5A0541F4480F5A053A01F1F
:0100FE0022DF
:0D00FF003000047F0980027F021200D2222F
:10009200E4F580E5A0541F44A0F5A053A01F75808D
:1000A200FFE5A0541F44C0F5A053A01F7580FFE5D3
:1000B200A0541F44E0F5A053A01F7580FFE5A05493
:1000C2001F4480F5A053A01F12011E1200FF80FBE7
:03000000020006F5
:0C000600787FE4F6D8FD75812002004DE3
:10001200020092E493A3F8E493A34003F68001F272
:1000220008DFF48029E493A3F85407240CC8C333EF
:10003200C4540F4420C8834004F456800146F6DFBE
:10004200E4800B0102040810204080900115E47E38
:10005200019360BCA3FF543F30E509541FFEE493B3
:10006200A360010ECF54C025E060A840B8E493A37A
:10007200FAE493A3F8E493A3C8C582C8CAC583CAA5
:10008200F0A3C8C582C8CAC583CADFE9DEE780BE5D
:01011D0000E1
:00000001FF
